{
  "_format": "hh-sol-artifact-1",
  "contractName": "TicketNFT",
  "sourceName": "contracts/TicketNFT.sol",
  "abi": [
    {
      "inputs": [
        {
          "internalType": "address",
          "name": "initialOwner",
          "type": "address"
        }
      ],
      "stateMutability": "nonpayable",
      "type": "constructor"
    },
    {
      "inputs": [
        {
          "internalType": "address",
          "name": "sender",
          "type": "address"
        },
        {
          "internalType": "uint256",
          "name": "tokenId",
          "type": "uint256"
        },
        {
          "internalType": "address",
          "name": "owner",
          "type": "address"
        }
      ],
      "name": "ERC721IncorrectOwner",
      "type": "error"
    },
    {
      "inputs": [
        {
          "internalType": "address",
          "name": "operator",
          "type": "address"
        },
        {
          "internalType": "uint256",
          "name": "tokenId",
          "type": "uint256"
        }
      ],
      "name": "ERC721InsufficientApproval",
      "type": "error"
    },
    {
      "inputs": [
        {
          "internalType": "address",
          "name": "approver",
          "type": "address"
        }
      ],
      "name": "ERC721InvalidApprover",
      "type": "error"
    },
    {
      "inputs": [
        {
          "internalType": "address",
          "name": "operator",
          "type": "address"
        }
      ],
      "name": "ERC721InvalidOperator",
      "type": "error"
    },
    {
      "inputs": [
        {
          "internalType": "address",
          "name": "owner",
          "type": "address"
        }
      ],
      "name": "ERC721InvalidOwner",
      "type": "error"
    },
    {
      "inputs": [
        {
          "internalType": "address",
          "name": "receiver",
          "type": "address"
        }
      ],
      "name": "ERC721InvalidReceiver",
      "type": "error"
    },
    {
      "inputs": [
        {
          "internalType": "address",
          "name": "sender",
          "type": "address"
        }
      ],
      "name": "ERC721InvalidSender",
      "type": "error"
    },
    {
      "inputs": [
        {
          "internalType": "uint256",
          "name": "tokenId",
          "type": "uint256"
        }
      ],
      "name": "ERC721NonexistentToken",
      "type": "error"
    },
    {
      "inputs": [
        {
          "internalType": "address",
          "name": "owner",
          "type": "address"
        }
      ],
      "name": "OwnableInvalidOwner",
      "type": "error"
    },
    {
      "inputs": [
        {
          "internalType": "address",
          "name": "account",
          "type": "address"
        }
      ],
      "name": "OwnableUnauthorizedAccount",
      "type": "error"
    },
    {
      "anonymous": false,
      "inputs": [
        {
          "indexed": true,
          "internalType": "address",
          "name": "owner",
          "type": "address"
        },
        {
          "indexed": true,
          "internalType": "address",
          "name": "approved",
          "type": "address"
        },
        {
          "indexed": true,
          "internalType": "uint256",
          "name": "tokenId",
          "type": "uint256"
        }
      ],
      "name": "Approval",
      "type": "event"
    },
    {
      "anonymous": false,
      "inputs": [
        {
          "indexed": true,
          "internalType": "address",
          "name": "owner",
          "type": "address"
        },
        {
          "indexed": true,
          "internalType": "address",
          "name": "operator",
          "type": "address"
        },
        {
          "indexed": false,
          "internalType": "bool",
          "name": "approved",
          "type": "bool"
        }
      ],
      "name": "ApprovalForAll",
      "type": "event"
    },
    {
      "anonymous": false,
      "inputs": [
        {
          "indexed": false,
          "internalType": "uint256",
          "name": "_fromTokenId",
          "type": "uint256"
        },
        {
          "indexed": false,
          "internalType": "uint256",
          "name": "_toTokenId",
          "type": "uint256"
        }
      ],
      "name": "BatchMetadataUpdate",
      "type": "event"
    },
    {
      "anonymous": false,
      "inputs": [
        {
          "indexed": false,
          "internalType": "uint256",
          "name": "_tokenId",
          "type": "uint256"
        }
      ],
      "name": "MetadataUpdate",
      "type": "event"
    },
    {
      "anonymous": false,
      "inputs": [
        {
          "indexed": true,
          "internalType": "address",
          "name": "previousOwner",
          "type": "address"
        },
        {
          "indexed": true,
          "internalType": "address",
          "name": "newOwner",
          "type": "address"
        }
      ],
      "name": "OwnershipTransferred",
      "type": "event"
    },
    {
      "anonymous": false,
      "inputs": [
        {
          "indexed": true,
          "internalType": "uint256",
          "name": "tokenId",
          "type": "uint256"
        },
        {
          "indexed": true,
          "internalType": "address",
          "name": "to",
          "type": "address"
        },
        {
          "indexed": false,
          "internalType": "uint256[]",
          "name": "seatIds",
          "type": "uint256[]"
        },
        {
          "indexed": false,
          "internalType": "string",
          "name": "eventId",
          "type": "string"
        },
        {
          "indexed": false,
          "internalType": "uint256",
          "name": "price",
          "type": "uint256"
        }
      ],
      "name": "TicketMinted",
      "type": "event"
    },
    {
      "anonymous": false,
      "inputs": [
        {
          "indexed": true,
          "internalType": "uint256",
          "name": "tokenId",
          "type": "uint256"
        },
        {
          "indexed": true,
          "internalType": "address",
          "name": "validator",
          "type": "address"
        },
        {
          "indexed": false,
          "internalType": "bool",
          "name": "isValid",
          "type": "bool"
        }
      ],
      "name": "TicketValidated",
      "type": "event"
    },
    {
      "anonymous": false,
      "inputs": [
        {
          "indexed": true,
          "internalType": "address",
          "name": "from",
          "type": "address"
        },
        {
          "indexed": true,
          "internalType": "address",
          "name": "to",
          "type": "address"
        },
        {
          "indexed": true,
          "internalType": "uint256",
          "name": "tokenId",
          "type": "uint256"
        }
      ],
      "name": "Transfer",
      "type": "event"
    },
    {
      "inputs": [
        {
          "internalType": "address",
          "name": "to",
          "type": "address"
        },
        {
          "internalType": "uint256",
          "name": "tokenId",
          "type": "uint256"
        }
      ],
      "name": "approve",
      "outputs": [],
      "stateMutability": "nonpayable",
      "type": "function"
    },
    {
      "inputs": [
        {
          "internalType": "address",
          "name": "owner",
          "type": "address"
        }
      ],
      "name": "balanceOf",
      "outputs": [
        {
          "internalType": "uint256",
          "name": "",
          "type": "uint256"
        }
      ],
      "stateMutability": "view",
      "type": "function"
    },
    {
      "inputs": [
        {
          "internalType": "uint256",
          "name": "tokenId",
          "type": "uint256"
        }
      ],
      "name": "getApproved",
      "outputs": [
        {
          "internalType": "address",
          "name": "",
          "type": "address"
        }
      ],
      "stateMutability": "view",
      "type": "function"
    },
    {
      "inputs": [],
      "name": "getCurrentTokenId",
      "outputs": [
        {
          "internalType": "uint256",
          "name": "",
          "type": "uint256"
        }
      ],
      "stateMutability": "view",
      "type": "function"
    },
    {
      "inputs": [
        {
          "internalType": "uint256",
          "name": "tokenId",
          "type": "uint256"
        }
      ],
      "name": "getTicketInfo",
      "outputs": [
        {
          "internalType": "uint256[]",
          "name": "seatIds",
          "type": "uint256[]"
        },
        {
          "internalType": "string",
          "name": "eventId",
          "type": "string"
        },
        {
          "internalType": "uint256",
          "name": "price",
          "type": "uint256"
        },
        {
          "internalType": "bool",
          "name": "isValid",
          "type": "bool"
        }
      ],
      "stateMutability": "view",
      "type": "function"
    },
    {
      "inputs": [
        {
          "internalType": "address",
          "name": "owner",
          "type": "address"
        }
      ],
      "name": "getTicketsByOwner",
      "outputs": [
        {
          "internalType": "uint256[]",
          "name": "",
          "type": "uint256[]"
        }
      ],
      "stateMutability": "view",
      "type": "function"
    },
    {
      "inputs": [
        {
          "internalType": "address",
          "name": "owner",
          "type": "address"
        },
        {
          "internalType": "address",
          "name": "operator",
          "type": "address"
        }
      ],
      "name": "isApprovedForAll",
      "outputs": [
        {
          "internalType": "bool",
          "name": "",
          "type": "bool"
        }
      ],
      "stateMutability": "view",
      "type": "function"
    },
    {
      "inputs": [
        {
          "internalType": "string",
          "name": "eventId",
          "type": "string"
        },
        {
          "internalType": "uint256",
          "name": "seatId",
          "type": "uint256"
        }
      ],
      "name": "isSeatMinted",
      "outputs": [
        {
          "internalType": "bool",
          "name": "",
          "type": "bool"
        }
      ],
      "stateMutability": "view",
      "type": "function"
    },
    {
      "inputs": [
        {
          "internalType": "address",
          "name": "to",
          "type": "address"
        },
        {
          "internalType": "uint256[]",
          "name": "seatIds",
          "type": "uint256[]"
        },
        {
          "internalType": "string",
          "name": "eventId",
          "type": "string"
        },
        {
          "internalType": "uint256",
          "name": "price",
          "type": "uint256"
        }
      ],
      "name": "mintTicket",
      "outputs": [
        {
          "internalType": "uint256",
          "name": "",
          "type": "uint256"
        }
      ],
      "stateMutability": "nonpayable",
      "type": "function"
    },
    {
      "inputs": [],
      "name": "name",
      "outputs": [
        {
          "internalType": "string",
          "name": "",
          "type": "string"
        }
      ],
      "stateMutability": "view",
      "type": "function"
    },
    {
      "inputs": [],
      "name": "owner",
      "outputs": [
        {
          "internalType": "address",
          "name": "",
          "type": "address"
        }
      ],
      "stateMutability": "view",
      "type": "function"
    },
    {
      "inputs": [
        {
          "internalType": "uint256",
          "name": "tokenId",
          "type": "uint256"
        }
      ],
      "name": "ownerOf",
      "outputs": [
        {
          "internalType": "address",
          "name": "",
          "type": "address"
        }
      ],
      "stateMutability": "view",
      "type": "function"
    },
    {
      "inputs": [],
      "name": "renounceOwnership",
      "outputs": [],
      "stateMutability": "nonpayable",
      "type": "function"
    },
    {
      "inputs": [
        {
          "internalType": "address",
          "name": "to",
          "type": "address"
        }
      ],
      "name": "safeMint",
      "outputs": [],
      "stateMutability": "nonpayable",
      "type": "function"
    },
    {
      "inputs": [
        {
          "internalType": "address",
          "name": "from",
          "type": "address"
        },
        {
          "internalType": "address",
          "name": "to",
          "type": "address"
        },
        {
          "internalType": "uint256",
          "name": "tokenId",
          "type": "uint256"
        }
      ],
      "name": "safeTransferFrom",
      "outputs": [],
      "stateMutability": "nonpayable",
      "type": "function"
    },
    {
      "inputs": [
        {
          "internalType": "address",
          "name": "from",
          "type": "address"
        },
        {
          "internalType": "address",
          "name": "to",
          "type": "address"
        },
        {
          "internalType": "uint256",
          "name": "tokenId",
          "type": "uint256"
        },
        {
          "internalType": "bytes",
          "name": "data",
          "type": "bytes"
        }
      ],
      "name": "safeTransferFrom",
      "outputs": [],
      "stateMutability": "nonpayable",
      "type": "function"
    },
    {
      "inputs": [
        {
          "internalType": "address",
          "name": "operator",
          "type": "address"
        },
        {
          "internalType": "bool",
          "name": "approved",
          "type": "bool"
        }
      ],
      "name": "setApprovalForAll",
      "outputs": [],
      "stateMutability": "nonpayable",
      "type": "function"
    },
    {
      "inputs": [
        {
          "internalType": "uint256",
          "name": "tokenId",
          "type": "uint256"
        },
        {
          "internalType": "string",
          "name": "uri",
          "type": "string"
        }
      ],
      "name": "setTokenURI",
      "outputs": [],
      "stateMutability": "nonpayable",
      "type": "function"
    },
    {
      "inputs": [
        {
          "internalType": "bytes4",
          "name": "interfaceId",
          "type": "bytes4"
        }
      ],
      "name": "supportsInterface",
      "outputs": [
        {
          "internalType": "bool",
          "name": "",
          "type": "bool"
        }
      ],
      "stateMutability": "view",
      "type": "function"
    },
    {
      "inputs": [],
      "name": "symbol",
      "outputs": [
        {
          "internalType": "string",
          "name": "",
          "type": "string"
        }
      ],
      "stateMutability": "view",
      "type": "function"
    },
    {
      "inputs": [
        {
          "internalType": "uint256",
          "name": "tokenId",
          "type": "uint256"
        }
      ],
      "name": "tokenURI",
      "outputs": [
        {
          "internalType": "string",
          "name": "",
          "type": "string"
        }
      ],
      "stateMutability": "view",
      "type": "function"
    },
    {
      "inputs": [],
      "name": "totalMinted",
      "outputs": [
        {
          "internalType": "uint256",
          "name": "",
          "type": "uint256"
        }
      ],
      "stateMutability": "view",
      "type": "function"
    },
    {
      "inputs": [
        {
          "internalType": "address",
          "name": "from",
          "type": "address"
        },
        {
          "internalType": "address",
          "name": "to",
          "type": "address"
        },
        {
          "internalType": "uint256",
          "name": "tokenId",
          "type": "uint256"
        }
      ],
      "name": "transferFrom",
      "outputs": [],
      "stateMutability": "nonpayable",
      "type": "function"
    },
    {
      "inputs": [
        {
          "internalType": "address",
          "name": "newOwner",
          "type": "address"
        }
      ],
      "name": "transferOwnership",
      "outputs": [],
      "stateMutability": "nonpayable",
      "type": "function"
    },
    {
      "inputs": [
        {
          "internalType": "uint256",
          "name": "tokenId",
          "type": "uint256"
        }
      ],
      "name": "validateTicket",
      "outputs": [
        {
          "internalType": "bool",
          "name": "",
          "type": "bool"
        }
      ],
      "stateMutability": "nonpayable",
      "type": "function"
    }
  ],
  "bytecode": "0x60806040523480156200001157600080fd5b506040516200247838038062002478833981016040819052620000349162000136565b806040518060400160405280600d81526020016c4576656e74205469636b65747360981b81525060405180604001604052806006815260200165151250d2d15560d21b81525081600090816200008b91906200020f565b5060016200009a82826200020f565b5050506001600160a01b038116620000cc57604051631e4fbdf760e01b81526000600482015260240160405180910390fd5b620000d781620000e4565b50506001600855620002db565b600780546001600160a01b038381166001600160a01b0319831681179093556040519116919082907f8be0079c531659141344cd1fd0a4f28419497f9722a3daafe3b4186f6b6457e090600090a35050565b6000602082840312156200014957600080fd5b81516001600160a01b03811681146200016157600080fd5b9392505050565b634e487b7160e01b600052604160045260246000fd5b600181811c908216806200019357607f821691505b602082108103620001b457634e487b7160e01b600052602260045260246000fd5b50919050565b601f8211156200020a576000816000526020600020601f850160051c81016020861015620001e55750805b601f850160051c820191505b818110156200020657828155600101620001f1565b5050505b505050565b81516001600160401b038111156200022b576200022b62000168565b62000243816200023c84546200017e565b84620001ba565b602080601f8311600181146200027b5760008415620002625750858301515b600019600386901b1c1916600185901b17855562000206565b600085815260208120601f198616915b82811015620002ac578886015182559484019460019091019084016200028b565b5085821015620002cb5787850151600019600388901b60f8161c191681555b5050505050600190811b01905550565b61218d80620002eb6000396000f3fe608060405234801561001057600080fd5b50600436106101735760003560e01c806370a08231116100de578063ac9659a311610097578063c87b56dd11610071578063c87b56dd1461031d578063e985e9c514610330578063f2fde38b14610343578063ff99a0631461035657600080fd5b8063ac9659a3146102e4578063b88d4fde146102f7578063bd1170aa1461030a57600080fd5b806370a082311461029d578063715018a6146102b05780638da5cb5b146102b857806395d89b41146102c9578063a22cb465146102d1578063a2309ff81461025457600080fd5b806323b872dd1161013057806323b872dd1461021b57806340d097c31461022e57806342842e0e1461024157806356189236146102545780636352211e1461026a57806367aa23e21461027d57600080fd5b806301ffc9a714610178578063054ae7df146101a057806306fdde03146101b3578063081812fc146101c8578063095ea7b3146101f3578063162094c414610208575b600080fd5b61018b610186366004611984565b610379565b60405190151581526020015b60405180910390f35b61018b6101ae3660046119a1565b61038a565b6101bb610432565b6040516101979190611a0a565b6101db6101d63660046119a1565b6104c4565b6040516001600160a01b039091168152602001610197565b610206610201366004611a34565b6104ed565b005b610206610216366004611aa7565b6104fc565b610206610229366004611af3565b61057d565b61020661023c366004611b2f565b610608565b61020661024f366004611af3565b61076c565b61025c610787565b604051908152602001610197565b6101db6102783660046119a1565b61079d565b61029061028b366004611b2f565b6107a8565b6040516101979190611b86565b61025c6102ab366004611b2f565b610907565b61020661094f565b6007546001600160a01b03166101db565b6101bb610963565b6102066102df366004611b99565b610972565b61025c6102f2366004611bd5565b61097d565b610206610305366004611ca5565b610d17565b61018b610318366004611d81565b610d2f565b6101bb61032b3660046119a1565b610d6a565b61018b61033e366004611dcd565b610d75565b610206610351366004611b2f565b610da3565b6103696103643660046119a1565b610de1565b6040516101979493929190611e00565b600061038482610f74565b92915050565b6000610394610f99565b6000828152600260205260409020546001600160a01b03166103d15760405162461bcd60e51b81526004016103c890611e3e565b60405180910390fd5b600082815260096020908152604080832060038101805460ff19169055905192835291339185917f1a54f67cbab8d73d9a92578004dab28b6823a8f323319d2c901ef1b2927ab3f4910160405180910390a36003015460ff1690505b919050565b60606000805461044190611e6c565b80601f016020809104026020016040519081016040528092919081815260200182805461046d90611e6c565b80156104ba5780601f1061048f576101008083540402835291602001916104ba565b820191906000526020600020905b81548152906001019060200180831161049d57829003601f168201915b5050505050905090565b60006104cf82610fc6565b506000828152600460205260409020546001600160a01b0316610384565b6104f8828233610fff565b5050565b610504610f99565b6000838152600260205260409020546001600160a01b03166105385760405162461bcd60e51b81526004016103c890611e3e565b6105788383838080601f01602080910402602001604051908101604052809392919081815260200183838082843760009201919091525061100c92505050565b505050565b6001600160a01b0382166105a757604051633250574960e11b8152600060048201526024016103c8565b60006105b483833361105c565b9050836001600160a01b0316816001600160a01b031614610602576040516364283d7b60e01b81526001600160a01b03808616600483015260248201849052821660448201526064016103c8565b50505050565b610610610f99565b600880546000918261062183611ebc565b909155506040805160018082528183019092529192506000919060208083019080368337019050509050818160008151811061065f5761065f611ed5565b6020908102919091018101919091526040805160a08101825283815281518083018352600d81526c1111519055531517d155915395609a1b8185015281840152600081830181905260016060830152426080830152858152600984529190912081518051929391926106d4928492019061190e565b50602082015160018201906106e99082611f33565b5060408201516002820155606082015160038201805460ff19169115159190911790556080909101516004909101556107228383611155565b826001600160a01b0316827f4453c23224fb8f3e97ce7a03aa54f3195d7f2f0746dc3348c484856c7366fd3a83600060405161075f929190611ff3565b60405180910390a3505050565b61057883838360405180602001604052806000815250610d17565b60006001600854610798919061203c565b905090565b600061038482610fc6565b60606001600160a01b0382166108005760405162461bcd60e51b815260206004820152601960248201527f43616e6e6f74207175657279207a65726f20616464726573730000000000000060448201526064016103c8565b600061080b83610907565b905060008167ffffffffffffffff81111561082857610828611c8f565b604051908082528060200260200182016040528015610851578160200160208202803683370190505b5090506000806001600854610866919061203c565b905060015b8181116108fc576000818152600260205260409020546001600160a01b0316158015906108b15750866001600160a01b03166108a68261079d565b6001600160a01b0316145b156108ea57808484815181106108c9576108c9611ed5565b6020908102919091010152826108de81611ebc565b935050848310156108fc575b806108f481611ebc565b91505061086b565b509195945050505050565b60006001600160a01b038216610933576040516322718ad960e21b8152600060048201526024016103c8565b506001600160a01b031660009081526003602052604090205490565b610957610f99565b610961600061116f565b565b60606001805461044190611e6c565b6104f83383836111c1565b6000610987610f99565b6001600160a01b0387166109dd5760405162461bcd60e51b815260206004820152601b60248201527f43616e6e6f74206d696e7420746f207a65726f2061646472657373000000000060448201526064016103c8565b84610a2a5760405162461bcd60e51b815260206004820152601e60248201527f4d7573742073706563696679206174206c65617374206f6e652073656174000060448201526064016103c8565b82610a775760405162461bcd60e51b815260206004820152601860248201527f4576656e742049442063616e6e6f7420626520656d707479000000000000000060448201526064016103c8565b60005b85811015610b3357600a8585604051610a9492919061204f565b90815260200160405180910390206000888884818110610ab657610ab6611ed5565b602090810292909201358352508101919091526040016000205460ff1615610b2b5760405162461bcd60e51b815260206004820152602260248201527f5365617420616c7265616479206d696e74656420666f722074686973206576656044820152611b9d60f21b60648201526084016103c8565b600101610a7a565b506008805460009182610b4583611ebc565b91905055905060005b86811015610bbc576001600a8787604051610b6a92919061204f565b908152602001604051809103902060008a8a85818110610b8c57610b8c611ed5565b60209081029290920135835250810191909152604001600020805460ff1916911515919091179055600101610b4e565b506040518060a00160405280888880806020026020016040519081016040528093929190818152602001838360200280828437600092019190915250505090825250604080516020601f8901819004810282018101909252878152918101919088908890819084018382808284376000920182905250938552505050602080830187905260016040808501919091524260609094019390935284825260098152919020825180519192610c749284929091019061190e565b5060208201516001820190610c899082611f33565b5060408201516002820155606082015160038201805460ff1916911515919091179055608090910151600490910155610cc28882611155565b876001600160a01b0316817f4453c23224fb8f3e97ce7a03aa54f3195d7f2f0746dc3348c484856c7366fd3a8989898989604051610d0495949392919061205f565b60405180910390a3979650505050505050565b610d2284848461057d565b6106023385858585611258565b6000600a8484604051610d4392919061204f565b908152604080516020928190038301902060009485529091529091205460ff169392505050565b606061038482611383565b6001600160a01b03918216600090815260056020908152604080832093909416825291909152205460ff1690565b610dab610f99565b6001600160a01b038116610dd557604051631e4fbdf760e01b8152600060048201526024016103c8565b610dde8161116f565b50565b60608060008080610e07866000908152600260205260409020546001600160a01b031690565b6001600160a01b031603610e2d5760405162461bcd60e51b81526004016103c890611e3e565b60008581526009602090815260408083208151815460c09481028201850190935260a08101838152909391928492849190840182828015610e8d57602002820191906000526020600020905b815481526020019060010190808311610e79575b50505050508152602001600182018054610ea690611e6c565b80601f0160208091040260200160405190810160405280929190818152602001828054610ed290611e6c565b8015610f1f5780601f10610ef457610100808354040283529160200191610f1f565b820191906000526020600020905b815481529060010190602001808311610f0257829003601f168201915b50505091835250506002820154602080830191909152600383015460ff161515604080840191909152600490930154606092830152835190840151928401519390910151909991985091965090945092505050565b60006001600160e01b03198216632483248360e11b1480610384575061038482611494565b6007546001600160a01b031633146109615760405163118cdaa760e01b81523360048201526024016103c8565b6000818152600260205260408120546001600160a01b03168061038457604051637e27328960e01b8152600481018490526024016103c8565b61057883838360016114e4565b60008281526006602052604090206110248282611f33565b506040518281527ff8e1a15aba9398e019f0b49df1a4fde98ee17ae345cb5f6b5e2c27f5033e8ce79060200160405180910390a15050565b6000828152600260205260408120546001600160a01b0390811690831615611089576110898184866115ea565b6001600160a01b038116156110c7576110a66000856000806114e4565b6001600160a01b038116600090815260036020526040902080546000190190555b6001600160a01b038516156110f6576001600160a01b0385166000908152600360205260409020805460010190555b60008481526002602052604080822080546001600160a01b0319166001600160a01b0389811691821790925591518793918516917fddf252ad1be2c89b69c2b068fc378daa952ba7f163c4a11628f55a4df523b3ef91a4949350505050565b6104f882826040518060200160405280600081525061164e565b600780546001600160a01b038381166001600160a01b0319831681179093556040519116919082907f8be0079c531659141344cd1fd0a4f28419497f9722a3daafe3b4186f6b6457e090600090a35050565b6001600160a01b0382166111f357604051630b61174360e31b81526001600160a01b03831660048201526024016103c8565b6001600160a01b03838116600081815260056020908152604080832094871680845294825291829020805460ff191686151590811790915591519182527f17307eab39ab6107e8899845ad3d59bd9653f200f220920489ca2b5937696c31910161075f565b6001600160a01b0383163b1561137c57604051630a85bd0160e11b81526001600160a01b0384169063150b7a029061129a9088908890879087906004016120ce565b6020604051808303816000875af19250505080156112d5575060408051601f3d908101601f191682019092526112d29181019061210b565b60015b61133e573d808015611303576040519150601f19603f3d011682016040523d82523d6000602084013e611308565b606091505b50805160000361133657604051633250574960e11b81526001600160a01b03851660048201526024016103c8565b805160208201fd5b6001600160e01b03198116630a85bd0160e11b1461137a57604051633250574960e11b81526001600160a01b03851660048201526024016103c8565b505b5050505050565b606061138e82610fc6565b50600082815260066020526040812080546113a890611e6c565b80601f01602080910402602001604051908101604052809291908181526020018280546113d490611e6c565b80156114215780601f106113f657610100808354040283529160200191611421565b820191906000526020600020905b81548152906001019060200180831161140457829003601f168201915b50505050509050600061143f60408051602081019091526000815290565b90508051600003611451575092915050565b81511561148357808260405160200161146b929190612128565b60405160208183030381529060405292505050919050565b61148c84611666565b949350505050565b60006001600160e01b031982166380ac58cd60e01b14806114c557506001600160e01b03198216635b5e139f60e01b145b8061038457506301ffc9a760e01b6001600160e01b0319831614610384565b80806114f857506001600160a01b03821615155b156115ba57600061150884610fc6565b90506001600160a01b038316158015906115345750826001600160a01b0316816001600160a01b031614155b801561154757506115458184610d75565b155b156115705760405163a9fbf51f60e01b81526001600160a01b03841660048201526024016103c8565b81156115b85783856001600160a01b0316826001600160a01b03167f8c5be1e5ebec7d5bd14f71427d1e84f3dd0314c0f7b2291e5b200ac8c7c3b92560405160405180910390a45b505b5050600090815260046020526040902080546001600160a01b0319166001600160a01b0392909216919091179055565b6115f58383836116db565b610578576001600160a01b03831661162357604051637e27328960e01b8152600481018290526024016103c8565b60405163177e802f60e01b81526001600160a01b0383166004820152602481018290526044016103c8565b611658838361173e565b610578336000858585611258565b606061167182610fc6565b50600061168960408051602081019091526000815290565b905060008151116116a957604051806020016040528060008152506116d4565b806116b3846117a3565b6040516020016116c4929190612128565b6040516020818303038152906040525b9392505050565b60006001600160a01b0383161580159061148c5750826001600160a01b0316846001600160a01b0316148061171557506117158484610d75565b8061148c5750506000908152600460205260409020546001600160a01b03908116911614919050565b6001600160a01b03821661176857604051633250574960e11b8152600060048201526024016103c8565b60006117768383600061105c565b90506001600160a01b03811615610578576040516339e3563760e11b8152600060048201526024016103c8565b606060006117b083611836565b600101905060008167ffffffffffffffff8111156117d0576117d0611c8f565b6040519080825280601f01601f1916602001820160405280156117fa576020820181803683370190505b5090508181016020015b600019016f181899199a1a9b1b9c1cb0b131b232b360811b600a86061a8153600a850494508461180457509392505050565b60008072184f03e93ff9f4daa797ed6e38ed64bf6a1f0160401b83106118755772184f03e93ff9f4daa797ed6e38ed64bf6a1f0160401b830492506040015b6d04ee2d6d415b85acef810000000083106118a1576d04ee2d6d415b85acef8100000000830492506020015b662386f26fc1000083106118bf57662386f26fc10000830492506010015b6305f5e10083106118d7576305f5e100830492506008015b61271083106118eb57612710830492506004015b606483106118fd576064830492506002015b600a83106103845760010192915050565b828054828255906000526020600020908101928215611949579160200282015b8281111561194957825182559160200191906001019061192e565b50611955929150611959565b5090565b5b80821115611955576000815560010161195a565b6001600160e01b031981168114610dde57600080fd5b60006020828403121561199657600080fd5b81356116d48161196e565b6000602082840312156119b357600080fd5b5035919050565b60005b838110156119d55781810151838201526020016119bd565b50506000910152565b600081518084526119f68160208601602086016119ba565b601f01601f19169290920160200192915050565b6020815260006116d460208301846119de565b80356001600160a01b038116811461042d57600080fd5b60008060408385031215611a4757600080fd5b611a5083611a1d565b946020939093013593505050565b60008083601f840112611a7057600080fd5b50813567ffffffffffffffff811115611a8857600080fd5b602083019150836020828501011115611aa057600080fd5b9250929050565b600080600060408486031215611abc57600080fd5b83359250602084013567ffffffffffffffff811115611ada57600080fd5b611ae686828701611a5e565b9497909650939450505050565b600080600060608486031215611b0857600080fd5b611b1184611a1d565b9250611b1f60208501611a1d565b9150604084013590509250925092565b600060208284031215611b4157600080fd5b6116d482611a1d565b60008151808452602080850194506020840160005b83811015611b7b57815187529582019590820190600101611b5f565b509495945050505050565b6020815260006116d46020830184611b4a565b60008060408385031215611bac57600080fd5b611bb583611a1d565b915060208301358015158114611bca57600080fd5b809150509250929050565b60008060008060008060808789031215611bee57600080fd5b611bf787611a1d565b9550602087013567ffffffffffffffff80821115611c1457600080fd5b818901915089601f830112611c2857600080fd5b813581811115611c3757600080fd5b8a60208260051b8501011115611c4c57600080fd5b602083019750809650506040890135915080821115611c6a57600080fd5b50611c7789828a01611a5e565b979a9699509497949695606090950135949350505050565b634e487b7160e01b600052604160045260246000fd5b60008060008060808587031215611cbb57600080fd5b611cc485611a1d565b9350611cd260208601611a1d565b925060408501359150606085013567ffffffffffffffff80821115611cf657600080fd5b818701915087601f830112611d0a57600080fd5b813581811115611d1c57611d1c611c8f565b604051601f8201601f19908116603f01168101908382118183101715611d4457611d44611c8f565b816040528281528a6020848701011115611d5d57600080fd5b82602086016020830137600060208483010152809550505050505092959194509250565b600080600060408486031215611d9657600080fd5b833567ffffffffffffffff811115611dad57600080fd5b611db986828701611a5e565b909790965060209590950135949350505050565b60008060408385031215611de057600080fd5b611de983611a1d565b9150611df760208401611a1d565b90509250929050565b608081526000611e136080830187611b4a565b8281036020840152611e2581876119de565b6040840195909552505090151560609091015292915050565b602080825260149082015273151bdad95b88191bd95cc81b9bdd08195e1a5cdd60621b604082015260600190565b600181811c90821680611e8057607f821691505b602082108103611ea057634e487b7160e01b600052602260045260246000fd5b50919050565b634e487b7160e01b600052601160045260246000fd5b600060018201611ece57611ece611ea6565b5060010190565b634e487b7160e01b600052603260045260246000fd5b601f821115610578576000816000526020600020601f850160051c81016020861015611f145750805b601f850160051c820191505b8181101561137a57828155600101611f20565b815167ffffffffffffffff811115611f4d57611f4d611c8f565b611f6181611f5b8454611e6c565b84611eeb565b602080601f831160018114611f965760008415611f7e5750858301515b600019600386901b1c1916600185901b17855561137a565b600085815260208120601f198616915b82811015611fc557888601518255948401946001909101908401611fa6565b5085821015611fe35787850151600019600388901b60f8161c191681555b5050505050600190811b01905550565b6060815260006120066060830185611b4a565b8281036020840152600d81526c1111519055531517d155915395609a1b6020820152604081019150508260408301529392505050565b8181038181111561038457610384611ea6565b8183823760009101908152919050565b6060808252810185905260006001600160fb1b0386111561207f57600080fd5b8560051b808860808501378201828103608090810160208501528101859052848660a0830137600060a0868301015260a0601f19601f8701168201019150508260408301529695505050505050565b6001600160a01b0385811682528416602082015260408101839052608060608201819052600090612101908301846119de565b9695505050505050565b60006020828403121561211d57600080fd5b81516116d48161196e565b6000835161213a8184602088016119ba565b83519083019061214e8183602088016119ba565b0194935050505056fea2646970667358221220008014317b24cf4c3f46693cb5e16f745c21f5f24c4d6380a1cbe3042b4a2c9c64736f6c63430008160033",
  "linkReferences": {},
  "deployedLinkReferences": {}
}